:020000040000FA
:060000000A128A110C280F
:10000800FE00030EF1000A08F2000A128A119A296A
:100018000A128A110F28F60183010A128A1122296D
:10002800F5007828831203139F121F129F111F11C6
:10003800AC28831203139F121F129F111F15AC289F
:10004800831203139F121F129F151F11AC288312CE
:1000580003139F121F129F151F15AC288312031339
:100068009F121F169F111F11AC28831203139F1292
:100078001F169F111F15AC28831203139F121F16FA
:100088009F151F11AC28831203139F121F169F156B
:100098001F15AC28831203139F161F129F111F11DF
:1000A800AC28831203139F161F129F111F15AC282B
:1000B800831203139F161F129F151F11AC2883125A
:1000C80003139F161F129F151F15AC2883120313C5
:1000D8009F161F169F111F11AC28831203139F161A
:1000E8001F169F111F15AC287508F300F40174083A
:1000F800003A03198028AC287308003A0319162817
:10010800013A03191D28033A03192428013A03194F
:100118002B28073A03193228013A03193928033AD8
:1001280003194028013A031947280F3A03194E28A2
:10013800013A03195528033A03195C28013A0319AF
:100148006328073A03196A28013A03197128AC2869
:100158000800F500FF28831603130F178F160F16D4
:100168008F110F158F100F142129831603130F17E2
:100178008F160F128F110F158F100F142129831648
:1001880003130F178F120F168F110F158F100F14DF
:100198002129831603130F178F120F128F110F15B2
:1001A8008F100F142129831603130F138F160F16A0
:1001B8008F110F158F100F142129831603130F1396
:1001C8008F160F128F110F158F100F1421298316F8
:1001D80003130F138F120F168F110F158F100F1493
:1001E8002129831603130F138F120F128F110F116A
:1001F8008F140F1421297508F300F4017408003ACC
:100208000319072921297308003A0319AF28013A6D
:100218000319B928033A0319C328013A0319CD2849
:10022800073A0319D728013A0319E128033A0319B1
:10023800EB28013A0319F528212908000A128A1126
:10024800AD210A128A1101300A128A11AD200A1250
:100258008A110A128A11BA210A128A1105300A1261
:100268008A1114200A128A1101300A128A115421A3
:100278000A128A110A128A11C3210A128A1101303C
:100288000A128A1179210A128A11831203139F18FC
:100298004E294F2949299F1449290A128A110C28E5
:1002A800F5006529831203139F131F1378298312FE
:1002B80003139F131F177829831203139F171F1304
:1002C80078297508F300F4017408003A03196D29B8
:1002D80078297308003A03195629013A03195B294A
:1002E800023A0319602978290800F500892983163C
:1002F80003130C13831203130C1399298316031386
:100308000C17831203130C1399297508F300F401D1
:100318007408003A0319912999297308003A0319B6
:100328007B29013A031982299929080083120313AA
:100338000C1F9F29A029A6291E08F0007008F600A6
:100348007608860072088A00710E8300FE0E7E0E03
:1003580009008316031309148316031788168316D6
:100368000313850183120313850108008312031305
:100378001F14831603139F139F121F1208008B1755
:040388000B17080047
:04400E00D4E0FFFFFC
:00000001FF
