:020000040000FA
:060000000A128A110C280F
:10000800FE00030EF2000A08F3000A128A11B12852
:100018000A128A110F28F701F801F901FA01FB0108
:1000280083010A128A11A029F6007C28831203137F
:100038009F121F129F111F11B028831203139F12C2
:100048001F129F111F15B028831203139F121F122E
:100058009F151F11B028831203139F121F129F159B
:100068001F15B028831203139F121F169F111F110B
:10007800B028831203139F121F169F111F15B02853
:10008800831203139F121F169F151F11B028831286
:1000980003139F121F169F151F15B02883120313F1
:1000A8009F161F129F111F11B028831203139F164A
:1000B8001F129F111F15B028831203139F161F12BA
:1000C8009F151F11B028831203139F161F129F1527
:1000D8001F15B028831203139F161F169F111F1197
:1000E800B028831203139F161F169F111F15B028DF
:1000F8007608F400F5017508003A03198428B02839
:100108007408003A03191A28013A03192128033AF6
:1001180003192828013A03192F28073A0319362802
:10012800013A03193D28033A03194428013A0319EF
:100138004B280F3A03195228013A03195928033A50
:1001480003196028013A03196728073A03196E282A
:10015800013A03197528B0280800831203130C1FED
:10016800B628B728BE281E08F0007008FB007B08D8
:1001780086000C138C1DC128C22824291412941B34
:10018800C628C728CB28141FCA28CB28D528130867
:10019800F000F1017008F9007108FA0094131413C3
:1001A800141683160313941ADA28DB28FE28141968
:1001B800DE28DF28FE28831203131308F000F1015C
:1001C8007008F9007108FA008C11141683160313CD
:1001D800141CEF28F028EA28831203131308F000F0
:1001E800F1017008F9007108FA005330F000F00BC3
:1001F800FB282129941A012902292129141D0529DE
:1002080006292129831203131308F000F10170084D
:10021800F9007108FA008316031314107B0883127F
:100228000313930014165330F000F00B19298316AA
:1002380003131418202921291B29831203138C1155
:1002480073088A00720E8300FE0E7E0E0900F60007
:100258007D29831603130F178F160F168F110F158D
:100268008F100F149F29831603130F178F160F1261
:100278008F110F158F100F149F29831603130F1753
:100288008F120F168F110F158F100F149F298316B9
:1002980003130F178F120F128F110F158F100F14D2
:1002A8009F29831603130F138F160F168F110F151F
:1002B8008F100F149F29831603130F138F160F1215
:1002C8008F110F158F100F149F29831603130F1307
:1002D8008F120F168F110F158F100F149F29831669
:1002E80003130F138F120F128F110F118F140F1486
:1002F8009F297608F400F5017508003A0319852945
:100308009F297408003A03192D29013A031937293E
:10031800033A03194129013A03194B29073A0319EA
:100328005529013A03195F29033A03196929013A42
:10033800031973299F2908000A128A1133220A1205
:100348008A1101300A128A112B210A128A110A1203
:100358008A1140220A128A1105300A128A111820BD
:100368000A128A1101300A128A11D3210A128A113B
:1003780001300A128A11F8210A128A1110300A1261
:100388008A1119220A128A11831203139F18CD2980
:10039800CE29C8299F14C8290A128A110C28F600E8
:1003A800E429831203139F131F13F72983120313DE
:1003B8009F131F17F729831203139F171F13F7297A
:1003C8007608F400F5017508003A0319EC29F729B5
:1003D8007408003A0319D529013A0319DA29023AAF
:1003E8000319DF29F7290800F600082A83160313E2
:1003F8000C13831203130C13182A831603130C17F8
:10040800831203130C13182A7608F400F5017508F3
:10041800003A0319102A182A7408003A0319FA290D
:10042800013A0319012A182A0800F40080308316BB
:100438000313940074089300363083120313940056
:100448000130831603139100871507168B170B17B6
:10045800831203138C11831603138C15080083165B
:1004680003130914831603178816831603138601CA
:100478008312031386010800831203131F148316C3
:0A04880003139F139F121F120800B8
:04400E00D4E0FFFFFC
:00000001FF
