:020000040000FA
:060000000A128A11FA2F1A
:100F6C008316031309148914FF30850083160317A5
:100F7C008801890183120313850108000A128A1162
:100F8C00B6270A128A1183120313091CCE2FCF2FF6
:100F9C00E22FF101F10A0918D42FD52FC92F05081A
:100FAC00F20072088507F10110300506031DDF2FD2
:100FBC00E02FF62F8501C92F891CE52FE62FC92FAD
:100FCC00F001F00A8918EB2FEC2FF02F05088502A1
:100FDC00F001C92F0508031DF42FF52FC92FEE2F93
:100FEC00C92F0A128A110028F001F10183010A129B
:040FFC008A11C42F63
:04400E00D4E0FFFFFC
:00000001FF
