:020000040000FA
:060000000A128A110C280F
:10000800FE00030EF8000A08F9000A128A111928DE
:100018000A128A110F28F001F101F201F301F4012B
:10002800F50183010A128A1185288B1383120313A1
:100038008C1D1F2820287D281412941B242825286D
:100048002928141F2828292833281308F600F7011F
:100058007608F2007708F300941314131416831625
:100068000313941A38283928572814193C283D288E
:100078005728831203131308F600F7017608F200D5
:100088007708F30083160313141C4B284C284628C2
:10009800831203131308F600F7017608F0007708B7
:1000A800F10014167B28941A5A285B287B28141D03
:1000B8005E285F287B28831203131308F600F701D4
:1000C8007608F2007708F3008316031314108312DE
:1000D80003130608930014166330F600F60B722813
:1000E80075288316031314187A287B287528831219
:1000F8008C118B1779088A00780E8300FE0E7E0E0D
:1001080009000A128A11E1200A128A1120300A1203
:100118008A11C7200A128A11A6288B13F501F50A3D
:10012800081997289828A5280130FB007B0886071E
:10013800F501F50A10300602031CA328A428A528F7
:1001480086018B17831203130819AB28AC28912852
:10015800BF288B13F401F40A8818B328B428BE28E2
:100168000608031DB828B928BB28F401BE280130A9
:100178008602B9288B178818C228C328AD28A62854
:100188000A128A110C28FA0080308316031394008F
:100198007A089300363083120313940001308316D3
:1001A80003139100871507168B170B178312031378
:1001B8008C11831603138C15080083160313081576
:1001C8008814831203138801831603138601831688
:0E01D8000317880189018312031386010800B2
:04400E00D4E0FFFFFC
:00000001FF
