:020000040000FA
:060000000A128A11F02F24
:10000800F001F1010130F0070318F10A0030F1079F
:100018007108803AFF0080307F02031D15283230B6
:100028007002031C182819280628080083120313D5
:100038003C088039BD003D08C6003C08BD003D07AE
:10004800BE003E08CD00BB1F2A282B282C284D14A3
:100058004D0803193028312841284D0A031D352839
:1000680036283E280030BC000030BB000030BA0003
:100078000030B900BB17BC0149280030BC00003073
:10008800BB000030BA000030B90038088039BD0024
:100098003D08C6063808BD003D07BE003E08CE0034
:1000A800B71F5728582859284E144E0803195D2899
:1000B8005E286E284E0A031D622863286B280030CC
:1000C800B8000030B7000030B6000030B500B717F0
:1000D800B80176280030B8000030B7000030B6000C
:1000E8000030B5003808370436043504031D7D2870
:1000F8007E2897280030BC000030BB000030BA00D2
:100108000030B9008030BB047F30BC044608BD0015
:100118003D08BC043C08B8003B08B7003A08B600E4
:100128003908B500F6294D08031D9B289C28A528E9
:100138000030B8000030B7000030B6000030B5001D
:10014800F6294D08BD00BE013E08C0004E083D021C
:10015800BF00031CC0033F087F3EC70040080318C8
:10016800013E003EC8003C08C5003B08C4003A08F0
:10017800C3003908C2000030BC000030BB000030AA
:10018800BA000030B9000030CC000030CB0000309D
:10019800CA000030C900CE011B294E080319D52812
:1001A800D628F6280130BD000310C20DC30DC40DBA
:1001B800C50DBD0BD8280130BD000310B90DBA0D0F
:1001C800BB0DBC0DBD0BE128CC1FEB28EC28ED289E
:1001D80039140130BD000310C90DCA0DCB0DCC0D6B
:1001E800BD0BEF2838084502031D042937084402CF
:1001F800031D042936084302031D04293508420259
:10020800031C0729082917294C173508C202360884
:10021800031C360FC3023708031C370FC402380803
:10022800031C380FC5020130BD003D08CE071A3047
:100238004E02031C20292129D128450844044304DF
:100248004204031928292929482949144829013031
:10025800BD000310B90DBA0DBB0DBC0DBD0B2D298A
:10026800CC1F37293829392939140130BD0003102A
:10027800C90DCA0DCB0DCC0DBD0B3B29FF30C707EF
:100288000318C80AFF30C807BB1F4B294C292B2964
:10029800CE01CC1F502951296D29FF304905BD00D9
:1002A800FF304A05BE00FF304B05BF007F304C05CC
:1002B800C00040083F043E043D0403196429652931
:1002C8006829CE01CE0A6D29391C6B296C296D2944
:1002D80065294E08031971297229A3290130B90724
:1002E800003003180130BA07003003180130BB078B
:1002F800003003180130BC073C1C83298429A3293A
:100308003908BD003A08BE003B08BF003C08C000E1
:100318000130C100400DC00CBF0CBE0CBD0CC10BA0
:100328008E294008BC003F08BB003E08BA003D08C3
:10033800B9000130C7070318C80A0030C8074808C1
:10034800803AFF0080307F02031DAC29FF3047024E
:10035800031CAF29B029BE29FF3083120313C7003D
:100368000030C8000030BC000030BB000030BA00CC
:100378000030B900831203134808803AFF00803028
:100388007F02031DC929013047020318CC29CD2952
:10039800DA2983120313C701C8010030BC000030FA
:1003A800BB000030BA000030B900C6018312031345
:1003B8004708BD003D08CD004D1CE329E429E62986
:1003C800BB17EA297F30BD003D08BB054D08BD00BD
:1003D80003103D0CBE003E08BC004608BD003D08A9
:1003E800BC048E2808007308803983120313A00008
:1003F8002008F8007308A0002007A1002108FA00CF
:10040800F21F072A082A092A7A147A0803190D2ADA
:100418000E2A1E2A7A0A031D122A132A1B2A0030C2
:10042800F3000030F2000030F1000030F000F21765
:10043800F301262A0030F3000030F2000030F1000A
:100448000030F00077088039A0002008F90079080A
:1004580078060319302A312A322A78177708A0003B
:100468002007A1002108F900F61F3B2A3C2A3D2A53
:10047800791479080319412A422A522A790A031D54
:10048800462A472A4F2A0030F7000030F60000308D
:10049800F5000030F400F617F7015A2A0030F7008B
:1004A8000030F6000030F5000030F4007A087902D8
:1004B80003185F2A602AA42A781F632A642A682AF4
:1004C8008030A0002008F8067A08A0002008FB0069
:1004D8007908A0002008FA007B08A0002008F9008D
:1004E8007008A0002008FB007408A0002008F00095
:1004F8007B08A0002008F4007108A0002008FB0079
:100508007508A0002008F1007B08A0002008F5006D
:100518007208A0002008FB007608A0002008F2005E
:100528007B08A0002008F6007308A0002008FB0044
:100538007708A0002008F3007B08A0002008F70037
:10054800FB017908A000A1012108A3007A08200274
:10055800A200031CA3032308803AFF0080307F0217
:10056800031DB82A1A302202031CBB2ABC2AFD2A02
:100578007308720471047004031DC32AC52A01306C
:10058800C62A003083120313A0002008FB000030A5
:10059800F3000030F2000030F1000030F00079087C
:1005A800A0002008FA00032B7B1CDB2ADC2AE72AA0
:1005B8007B0883120313A0000310200C0138A1004C
:1005C8002108FB00E92A0310FB0C701CEC2AED2A19
:1005D800EE2AFB17013083120313A000730DF30CEE
:1005E800F20CF10CF00CA00BF22A0130A00020084C
:1005F800FA0779087A02031C022B032BD82A781BE6
:10060800062B072B562B7A08031D0B2B0C2B152BAF
:100618000030F3000030F2000030F1000030F0004C
:100628008E2C7408F007750803110318013E03198E
:100638001E2BF107760803110318013E0319252B19
:10064800F207770803110318013E03192C2BF3074F
:10065800731C2F2B302B0E2C7B1C332B342B3F2B56
:100668007B0883120313A0000310200C0138A1009B
:100678002108FB00412B0310FB0C701C442B452B5D
:10068800462BFB17013083120313A000730DF30CE4
:10069800F20CF10CF00CA00B4A2B0130A000200842
:1006A800FA070E2C7308803AFF007708803A7F0219
:1006B800031D682B76087202031D682B75087102EA
:1006C800031D682B7408700203186B2B6C2BC62B48
:1006D800FF3083120313A000FF30A100FF30A200F7
:1006E800FF30A3007408A4007508A5007608A600CA
:1006F8007708A7007008A4027108031C710F852BE6
:10070800862BA5027208031C720F8B2B8C2BA6025A
:100718007308031C730F912B922BA7022408A007C0
:1007280025080318250F992B9A2BA10726080318CB
:10073800260F9F2BA02BA20727080318270AA30719
:100748002308F3002208F2002108F1002008F00035
:100758008030A0002008F806FB09FB0A7B08031D6F
:10076800B62BB72BD42B0130F0070030031801301B
:10077800F107003003180130F20700300318013088
:10078800F307D42B7408F0027508031C750FF102E7
:100798007608031C760FF2027708031C770FF30222
:1007A8007308720471047004031DDB2BDC2B0A2C04
:1007B8007B08031DE02BE12B0A2C0030F3000030EE
:1007C800F2000030F1000030F0008E2C013083126E
:1007D8000313A0000310F00DF10DF20DF30DA00BA3
:1007E800EE2BFB1FF82BF92BFA2B70147B1CFD2B1F
:1007F800FE2B012C0314FB0D032C0310FB0D7A08B0
:100808000319072C082C0A2C0130FA02F21F0D2CB0
:100818000E2CEA2BF901FB1F122C132C212C7B0820
:100828007F390319182C192C1C2CF901F90A212CD1
:10083800701C1F2C202C212C192C79080319252C0D
:10084800262C5C2C0130F007003003180130F1072A
:10085800003003180130F207003003180130F307A5
:10086800731C372C382C5C2C700883120313A000DF
:100878007108A1007208A2007308A3000130A40047
:10088800230DA30CA20CA10CA00CA40B442C230830
:10089800F3002208F2002108F1002008F0007A0A8B
:1008A8000319572C582C5C2C0130A0002008FA079B
:1008B8007A0A0319602C612C662C7A08031D652CB2
:1008C800662C742C0030F3000030F2000030F10088
:1008D8000030F0007A08031D722C732C742CF80178
:1008E8007A1C772C782C7A2CF217802C7F30831284
:1008F8000313A0002008F2057A0883120313A0004E
:100908000310200CA1002108F300F81F8C2C8D2C5B
:100918008E2CF31708008312031323088039F9007B
:100928007908A8002308F9007907FA007A08AE00C8
:10093800A21F9F2CA02CA12C2E142E080319A52C25
:10094800A62CB52C2E0A031DAA2CAB2CB32C0030D8
:10095800A3000030A2000030A1000030A000A217C0
:10096800BD2C0030A3000030A2000030A1000030F0
:10097800A00027088039F9007908A8062708F90097
:100988007907FA007A08AD00A61FCB2CCC2CCD2C09
:100998002D142D080319D12CD22CE12C2D0A031D5E
:1009A800D62CD72CDF2C0030A7000030A600003052
:1009B800A5000030A400A617E92C0030A7000030DD
:1009C800A6000030A5000030A4002D080319ED2C66
:1009D800EE2CF32C2E08031DF22CF32CFC2C0030EB
:1009E800A3000030A2000030A1000030A000EF2FCB
:1009F8002008F9007908F00026080A128A154D2304
:100A08000A128A11710883120313B4007008B30024
:100A18003308F900FA01FB01FC017C08AC007B08F3
:100A2800AB007A08AA007908A9003408F900FA018D
:100A3800FB01FC017C08B2007B08B1007A08B00019
:100A48007908AF002108F9007908F00025080A1292
:100A58008A154D230A128A11710883120313B400F0
:100A68007008B3003308F900FA01FB01FC017908AA
:100A7800A9077A0803110318013E0319442DAA0790
:100A88007B0803110318013E03194B2DAB077C08A3
:100A980003110318013E0319522DAC073408F9005D
:100AA800FA01FB01FC017908AF077A080311031862
:100AB800013E0319602DB0077B0803110318013E9E
:100AC8000319672DB1077C0803110318013E0319A8
:100AD8006E2DB2072208F9007908F00024080A12DE
:100AE8008A154D230A128A11710883120313B40060
:100AF8007008B3003308F900FA01FB01FC0179081A
:100B0800A9077A0803110318013E03198C2DAA07B7
:100B18007B0803110318013E0319932DAB077C08CA
:100B280003110318013E03199A2DAC073408F90084
:100B3800FA01FB01FC017908AF077A0803110318D1
:100B4800013E0319A82DB0077B0803110318013EC5
:100B58000319AF2DB1077C0803110318013E0319CF
:100B6800B62DB2070830F9000310A90DAA0DAB0D78
:100B7800AC0DF90BB82D2108F9007908F00024080C
:100B88000A128A154D230A128A1171088312031357
:100B9800B4007008B3003308F9003408FA00FB0108
:100BA800FC017908A9077A0803110318013E031903
:100BB800DE2DAA077B0803110318013E0319E52D52
:100BC800AB077C0803110318013E0319EC2DAC0791
:100BD8002008F9007908F00025080A128A154D2323
:100BE8000A128A11710883120313B4007008B30043
:100BF8003308F9003408FA00FB01FC017908A90759
:100C08007A0803110318013E03190B2EAA077B0863
:100C180003110318013E0319122EAB077C080311B8
:100C28000318013E0319192EAC070830F900031008
:100C3800A90DAA0DAB0DAC0DF90B1B2E2008F90060
:100C48007908F00024080A128A154D230A128A111D
:100C5800710883120313B4007008B3003308F90055
:100C68003408FA00FB01FC017908A9077A08031186
:100C78000318013E0319412EAA077B080311031824
:100C8800013E0319482EAB077C0803110318013EE7
:100C980003194F2EAC072108F9007908F00026083F
:100CA8000A128A154D230A128A1171088312031336
:100CB800B4007008B3003308F9003408FA00FB01E7
:100CC800FC017908AF077A0803110318013E0319DC
:100CD8006E2EB0077B0803110318013E0319752E09
:100CE800B1077C0803110318013E03197C2EB207D3
:100CF8002208F9007908F00025080A128A154D2300
:100D08000A128A11710883120313B4007008B30021
:100D18003308F9003408FA00FB01FC017908AF0731
:100D28007A0803110318013E03199B2EB0077B08AC
:100D380003110318013E0319A22EB1077C08031101
:100D48000318013E0319A92EB2072208F9007908F1
:100D5800F00026080A128A154D230A128A11710812
:100D680083120313B4007008B3003308F900340881
:100D7800FA00FB01FC0108300310F90DFA0DFB0D18
:100D8800FC0DFF3E031DC02E7908AF077A0803113A
:100D98000318013E0319D12EB0077B08031103186D
:100DA800013E0319D82EB1077C0803110318013E30
:100DB8000319DF2EB2072908F9002A08FA002B08C0
:100DC800FB002C08FC0018300310FC0CFB0CFA0C80
:100DD800F90CFF3E031DE82E7908AF077A080311C6
:100DE8000318013E0319F92EB0077B0803110318F5
:100DF800013E0319002FB1077C0803110318013EB7
:100E08000319072FB2070830F9000310A90DAA0D1E
:100E1800AB0DAC0DF90B092F2E082D07F900FA01BF
:100E2800FA0D7908823EB3007A080318013EFF3EA6
:100E3800B4003B2F0130F9000310AF0DB00DB10D18
:100E4800B20DF90B202FAC1F2A2F2B2F2C2F2F146C
:100E58000130F9000310A90DAA0DAB0DAC0DF90B6B
:100E68002E2FFF30B3070318B40AFF30B407B11FA1
:100E78003E2F3F2F1E2FAD01AC1F432F442F602F55
:100E8800FF302905F900FF302A05FA00FF302B054D
:100E9800FB007F302C05FC007C087B047A04790475
:100EA8000319572F582F5B2FAD01AD0A602F2F1C48
:100EB8005E2F5F2F602F582F2D080319642F652F81
:100EC800962F0130AF07003003180130B00700300B
:100ED80003180130B107003003180130B207321C83
:100EE800762F772F962F2F08F9003008FA0031084F
:100EF800FB003208FC000130FD007C0DFC0CFB0CF3
:100F0800FA0CF90CFD0B812F7C08B2007B08B100AC
:100F18007A08B0007908AF000130B3070318B40AA3
:100F28000030B4073408803AFF0080307F02031D88
:100F38009F2FFF303302031CA22FA32FAE2F7F3029
:100F480083120313B2008030B1000030B0000030CB
:100F5800AF00E32F831203133408803AFF00803078
:100F68007F02031DB92F013033020318BC2FBD2F98
:100F7800C92F003083120313B2000030B1000030D3
:100F8800B0000030AF00A801E32F83120313330829
:100F9800F9007908AE00FF30AF05FF30B0057F30AB
:100FA800B1050030B2052E1CDA2FDB2FDC2FB1176C
:100FB8002E08F9000310790CFA007A08B200280804
:100FC800F9007908B2043208A3003108A2003008F9
:100FD800A1002F08A000080083120313DE01DF011F
:100FE800E001E101E201E301E401E501E601E701D5
:100FF80083010A128A15D62D08308A000408840A4B
:1010080082070034533431343A34003453343234A0
:101018003A340034533433343A3400342E34003400
:1014C2000A128A1587220A128A1583160313111427
:1014D20008000A128A1587220A128A158316031334
:1014E200111508000A128A1587220A128A15700835
:1014F2008312031393000800831603138501FF3040
:1015020089008316031788018901080083160313D3
:1015120014198C2A8D2A872A11081F39031D922A31
:10152200932A872A08007408303EF20075080318CF
:10153200013E003EF3000A128A15A2220A128A15FF
:101542000800720883120313850009148910091513
:101552000A128A1104200A128A158312031309112E
:101562000800F20072088312031385000910891023
:1015720009150A128A1104200A128A15831203130A
:1015820009110800F4007403031DC82AC92AD12ACC
:101592007308803E0A128A15B2220A128A15DE2ABE
:1015A20002307406031DD62AD72ADE2A7308C03EEB
:1015B2000A128A15B2220A128A1508008030831292
:1015C2000313AB062F08F3002E08F2002D08F100DA
:1015D2002C08F0002B08F7002A08F6002908F5006D
:1015E2002808F4000A128A11F7210A128A157308D0
:1015F20083120313AB007208AA007108A9007008D5
:10160200A8000800F401F501701C082B092B0F2B10
:101612007208F4070318F50A7308F507013003107E
:10162200F20DF30DFF3E031D102B01300310F10CE0
:10163200F00CFF3E031D172B70087104031D222BB3
:10164200232B052B7508F1007408F0000800F60042
:10165200402B760884000A128A1500200A128A1585
:10166200F400F5017408F2007508F3000A128A15F5
:10167200A2220A128A150130F4007408F6077608CD
:1016820084000A128A1500200A128A15003A031DE4
:101692004B2B4C2B2A2B0800F800F401F5017008A3
:1016A200F200F3017208F6007308F700781C5A2B57
:1016B2005B2B612B7608F4070318F50A7708F50708
:1016C20001300310F60DF70DFF3E031D622B0310D0
:1016D200F80C7808031D6E2B6F2B572B7508F10041
:1016E2007408F00008000A128A1587220A128A1565
:1016F2008316031391150A128A1587220A128A1574
:10170200831203131308F200F3017208F400730842
:10171200F5000A128A1587220A128A1570087104C6
:10172200031D942B952B992B831603139116A22B31
:1017320070037104031D9E2B9F2BA22B8316031390
:1017420091128316031311167508F1007408F00044
:1017520008002830831203139400831603139101A7
:10176200831203132008A4002108A5002208A60062
:101772002308A70002300310A40DA50DA60DA70D86
:10178200FF3E031DBC2B2708F3002608F2002508A4
:10179200F1002408F0000030F7003D30F600093077
:1017A200F5000030F4000A128A1538240A128A154C
:1017B2007008FF3E831603139300940187150716E2
:1017C20008001A30F400F830F300F30BE62BF40BA8
:1017D200E62B000030300A128A15B2220A128A154C
:1017E2000730F4007D30F300F30BF52BF40BF52BEF
:1017F20030300A128A15B2220A128A15C730F30053
:10180200022CF30B012C052C062C30300A128A15FF
:10181200B2220A128A15C730F3000F2CF30B0E2CDA
:10182200122C132C38300A128A15B2220A128A1587
:1018320010300A128A15B2220A128A1501300A12CF
:101842008A15B2220A128A1506300A128A15B222A3
:101852000A128A150C300A128A15B2220A128A1545
:1018620080300A128A15B2220A128A150800003044
:10187200FC000030FB000030FA000030F900730871
:101882007204710470040319472C482C952CFD0135
:10189200FD0A582C0130F8000310F00DF10DF20D85
:1018A200F30DF80B4D2C0130F8007808FD07F31FFB
:1018B2005B2C5C2C4B2C0130F8000310F90DFA0D57
:1018C200FB0DFC0DF80B5E2C73087702031D732CC5
:1018D20072087602031D732C71087502031D732CA6
:1018E20070087402031C762C772C862C7008F40284
:1018F2007108031C710FF5027208031C720FF602C5
:101902007308031C730FF702791401300310F30CF0
:10191200F20CF10CF00CFF3E031D872C0130FD028E
:10192200031D942C952C5C2C7C08F3007B08F200A0
:101932007A08F1007908F0000800031083120313FB
:10194200510D520DD3005308D9005908031DAA2C7A
:10195200AB2CB42C0030D2000030D1000030D000CB
:101962000030CF00192D4F08D3005008D400510881
:10197200D5005208D6001F300310D60CD50CD40C5B
:10198200D30CFF3E031DBD2C5308D7005708D800C7
:10199200D117FF30CF05FF30D005FF30D105003021
:1019A200D2059630D902D91FD72CD82CF22C59083F
:1019B200803A973E0318DE2CDF2CE02CAB2C013052
:1019C2000310D20CD10CD00CCF0CFF3E031DE12C26
:1019D2000130D3005308D907031DF02CF12CE02C61
:1019E200092D20305902031CF72CF82C042DAB2CA6
:1019F2000130D3000310CF0DD00DD10DD20DD30B7A
:101A0200FB2C0130D9025908031D082D092DF92C90
:101A1200580803190D2D0E2D192DCF09D009D10902
:101A2200D209CF0A0319D00A0319D10A0319D20A1B
:101A3200080083120313A00020080319212D222D70
:101A4200362DF91F252D262D362D7609A200770970
:101A5200A3007809A4007909A500A20A0319A30A20
:101A62000319A40A0319A50A3E2D7908A5007808CE
:101A7200A4007708A3007608A20079087804770406
:101A82007604031D452D462D4F2D0030F900003000
:101A9200F8000030F7000030F600D52D9630FA003D
:101AA2007A08A100612D0130FA007A08A1070130FD
:101AB2000310A50CA40CA30CA20CFF3E031D592D70
:101AC200FE302505031D662D672D542D832D013013
:101AD200FA007A08A1070130A2070030031801308A
:101AE200A307003003180130A407003003180130A7
:101AF200A50701300310A50CA40CA30CA20CFF3EF9
:101B0200031D7B2DFF302505031D882D892D682D92
:101B1200952D0130A1020130FA000310A20DA30D90
:101B2200A40DA50DFA0B8E2DA41B982D992D9F2D7A
:101B32000230210203189E2D9F2D8A2D2118A22DDD
:101B4200A32DAB2DFF30A205FF30A3057F30A405E6
:101B5200FF30A5050310A10C2108FA00FB01FC01CE
:101B6200FD0118300310FA0DFB0DFC0DFD0DFF3EBB
:101B7200031DB32D7A08A2047B08A3047C08A404E5
:101B82007D08A50420080319C72DC82DCD2DF91FE6
:101B9200CB2DCC2DCD2DA5172508F9002408F80052
:101BA2002308F7002208F60008000A128A157D228F
:101BB2000A128A150A128A15E2230A128A150030BD
:101BC20083120313A3000130A2008630A100A030CB
:101BD200A0000A128A15AA230A128A15F301F30A2F
:101BE20001300A128A15C3220A128A150A128A11B0
:101BF20004200A128A1501300A128A1528230A12B1
:101C02008A150A128A1104200A128A1506308312D2
:101C12000313DA005A08F30001300A128A15C322AC
:101C22000A128A150A128A1104200A128A1505302C
:101C32000A128A1528230A128A150A128A11042006
:101C42000A128A150B3083120313DA005A08F300C2
:101C520001300A128A15C3220A128A150A128A113F
:101C620004200A128A1509300A128A1528230A1238
:101C72008A150A128A1104200A128A150A128A1572
:101C820061220A128A151130F0000030F1000A12A6
:101C92008A1573220A128A150130F0000030F10011
:101CA2000A128A1574230A128A1570088312031302
:101CB200DA007108DB00DC01DD015D08F9005C0877
:101CC200F8005B08F7005A08F60000300A128A157D
:101CD2001A250A128A15790883120313E10078087B
:101CE200E0007708DF007608DE000A128A156A2211
:101CF2000A128A15433083120313B8007F30B700EB
:101D02000030B6000030B5004030A300A030A20081
:101D12000030A1000030A0006108A7006008A60002
:101D22005F08A5005E08A4000A128A118F240A1215
:101D32008A15831203132308BC002208BB00210862
:101D4200BA002008B9000A128A111A200A128A154A
:101D5200831203133808E1003708E0003608DF0079
:101D62003508DE004230A300C830A2000030A100D6
:101D72000030A0006108A7006008A6005F08A50067
:101D82005E08A4000A128A118F240A128A1583128D
:101D920003132308E1002208E0002108DF002008E5
:101DA200DE006108BC006008BB005F08BA005E0884
:101DB200B9004230B800C830B7000030B600003079
:101DC200B5000A128A111A200A128A158312031305
:101DD2003808D2003708D1003608D0003508CF00C5
:101DE2000A128A159E240A128A15831203135008B6
:101DF200E7004F08E6006430F2000030F3006708A5
:101E0200F1006608F0000A128A1503230A128A15E5
:101E1200700883120313DA007108DB00DC01DD01B4
:101E22005D08F9005C08F8005B08F7005A08F60044
:101E320000300A128A151A250A128A1579088312A5
:101E42000313AB007808AA007708A9007608A80057
:101E52006108AF006008AE005F08AD005E08AC002C
:101E62000A128A15DF220A128A15831203132B081B
:101E7200E1002A08E0002908DF002808DE006108E6
:101E8200BC006008BB005F08BA005E08B9004130C0
:101E9200B8002030B7000030B6000030B5000A129A
:101EA2008A111A200A128A15831203133808D200E3
:101EB2003708D1003608D0003508CF000A128A153B
:101EC2009E240A128A15831203135008E5004F0854
:101ED200E4006108AF006008AE005F08AD005E0874
:101EE200AC000A30F2000030F3006508F10064082B
:101EF200F0000A128A1503230A128A157008831247
:101F02000313DA007108DB00DC01DD015D08F90072
:101F12005C08F8005B08F7005A08F60000300A1265
:101F22008A151A250A128A15790883120313AB003F
:101F32007808AA007708A9007608A8000A128A156C
:101F4200DF220A128A15831203132B08D2002A08F1
:101F5200D1002908D0002808CF000A128A159E2431
:101F62000A128A15831203135008E3004F08E20095
:101F7200F301F30A02300A128A15C3220A128A15E1
:101F82000A128A1104200A128A158312031367089F
:101F9200F5006608F4000A128A1594220A128A15BC
:101FA2000A128A1104200A128A150D300A128A15A1
:101FB20028230A128A150A128A1104200A128A1583
:101FC200831203136508F5006408F4000A128A15E7
:101FD20094220A128A150A128A1104200A128A15F8
:101FE200831203136308F5006208F4000A128A15CB
:0E1FF20094220A128A15EF2D0A128A11002875
:04400E00D4E0FFFFFC
:00000001FF
