:020000040000FA
:100000000A128A11EE2F00308A000408840A82073F
:100010000034533431343A340034533432343A34C3
:0E0020000034533433343A3400342E34003478
:10003000831203133C088039BD003D08C6003C080C
:10004000BD003D07BE003E08CD00BB1F2828292863
:100050002A284D144D0803192E282F283F284D0A11
:10006000031D332834283C280030BC000030BB007E
:100070000030BA000030B900BB17BC01472800307F
:10008000BC000030BB000030BA000030B9003808B6
:100090008039BD003D08C6063808BD003D07BE00DA
:1000A0003E08CE00B71F5528562857284E144E0834
:1000B00003195B285C286C284E0A031D6028612800
:1000C00069280030B8000030B7000030B6000030BA
:1000D000B500B717B80174280030B8000030B70079
:1000E0000030B6000030B500380837043604350457
:1000F000031D7B287C2895280030BC000030BB0005
:100100000030BA000030B9008030BB047F30BC043E
:100110004608BD003D08BC043C08B8003B08B700D9
:100120003A08B6003908B500F4294D08031D99288E
:100130009A28A3280030B8000030B7000030B6007D
:100140000030B500F4294D08BD00BE013E08C000D6
:100150004E083D02BF00031CC0033F087F3EC7009E
:1001600040080318013E003EC8003C08C5003B089B
:10017000C4003A08C3003908C2000030BC00003097
:10018000BB000030BA000030B9000030CC000030B5
:10019000CB000030CA000030C900CE0119294E083A
:1001A0000319D328D428F4280130BD000310C20D50
:1001B000C30DC40DC50DBD0BD6280130BD00031005
:1001C000B90DBA0DBB0DBC0DBD0BDF28CC1FE92846
:1001D000EA28EB2839140130BD000310C90DCA0DFF
:1001E000CB0DCC0DBD0BED2838084502031D0229AF
:1001F00037084402031D022936084302031D022961
:1002000035084202031C0529062915294C17350813
:10021000C2023608031C360FC3023708031C370F0F
:10022000C4023808031C380FC5020130BD003D0868
:10023000CE071A304E02031C1E291F29CF2845085D
:100240004404430442040319262927294629491452
:1002500046290130BD000310B90DBA0DBB0DBC0D10
:10026000BD0B2B29CC1F35293629372939140130EC
:10027000BD000310C90DCA0DCB0DCC0DBD0B392926
:10028000FF30C7070318C80AFF30C807BB1F49293A
:100290004A292929CE01CC1F4E294F296B29FF302D
:1002A0004905BD00FF304A05BE00FF304B05BF00C9
:1002B0007F304C05C00040083F043E043D04031954
:1002C000622963296629CE01CE0A6B29391C692966
:1002D0006A296B2963294E0803196F297029A129FE
:1002E0000130B907003003180130BA070030031895
:1002F0000130BB07003003180130BC073C1C8129CA
:100300008229A1293908BD003A08BE003B08BF0078
:100310003C08C0000130C100400DC00CBF0CBE0C39
:10032000BD0CC10B8C294008BC003F08BB003E0837
:10033000BA003D08B9000130C7070318C80A0030E9
:10034000C8074808803AFF0080307F02031DAA29B1
:10035000FF304702031CAD29AE29BC29FF308312B0
:100360000313C7000030C8000030BC000030BB00E1
:100370000030BA000030B900831203134808803AF5
:10038000FF0080307F02031DC72901304702031898
:10039000CA29CB29D82983120313C701C801003009
:1003A000BC000030BB000030BA000030B900C6010C
:1003B000831203134708BD003D08CD004D1CE12901
:1003C000E229E429BB17E8297F30BD003D08BB05C1
:1003D0004D08BD0003103D0CBE003E08BC004608A1
:1003E000BD003D08BC048C280800730880398312C6
:1003F0000313A0002008F8007308A0002007A10044
:100400002108FA00F21F052A062A072A7A147A0818
:1004100003190B2A0C2A1C2A7A0A031D102A112AF6
:10042000192A0030F3000030F2000030F1000030F3
:10043000F000F217F301242A0030F3000030F2003C
:100440000030F1000030F00077088039A00020086B
:10045000F9007908780603192E2A2F2A302A7817EE
:100460007708A0002007A1002108F900F61F392A0B
:100470003A2A3B2A7914790803193F2A402A502A3C
:10048000790A031D442A452A4D2A0030F70000301E
:10049000F6000030F5000030F400F617F701582A96
:1004A0000030F7000030F6000030F5000030F400B6
:1004B0007A08790203185D2A5E2AA22A781F612A27
:1004C000622A662A8030A0002008F8067A08A00078
:1004D0002008FB007908A0002008FA007B08A00093
:1004E0002008F9007008A0002008FB007408A00094
:1004F0002008F0007B08A0002008F4007108A0008C
:100500002008FB007508A0002008F1007B08A0006F
:100510002008F5007208A0002008FB007608A00063
:100520002008F2007B08A0002008F6007308A00055
:100530002008FB007708A0002008F3007B08A0003B
:100540002008F700FB017908A000A1012108A30001
:100550007A082002A200031CA3032308803AFF00AC
:1005600080307F02031DB62A1A302202031CB92AEA
:10057000BA2AFB2A7308720471047004031DC12A8D
:10058000C32A0130C42A003083120313A0002008BC
:10059000FB000030F3000030F2000030F1000030CA
:1005A000F0007908A0002008FA00012B7B1CD92A52
:1005B000DA2AE52A7B0883120313A0000310200C1B
:1005C0000138A1002108FB00E72A0310FB0C701C76
:1005D000EA2AEB2AEC2AFB17013083120313A0004E
:1005E000730DF30CF20CF10CF00CA00BF02A01309F
:1005F000A0002008FA0779087A02031C002B012BBF
:10060000D62A781B042B052B542B7A08031D092BA3
:100610000A2B132B0030F3000030F2000030F10001
:100620000030F0008C2C7408F007750803110318D3
:10063000013E03191C2BF107760803110318013E34
:100640000319232BF207770803110318013E03193E
:100650002A2BF307731C2D2B2E2B0C2C7B1C312BE0
:10066000322B3D2B7B0883120313A0000310200CB8
:100670000138A1002108FB003F2B0310FB0C701C6C
:10068000422B432B442BFB17013083120313A00092
:10069000730DF30CF20CF10CF00CA00B482B013095
:1006A000A0002008FA070C2C7308803AFF00770896
:1006B000803A7F02031D662B76087202031D662BAB
:1006C00075087102031D662B740870020318692BEC
:1006D0006A2BC42BFF3083120313A000FF30A1004C
:1006E000FF30A200FF30A3007408A4007508A50025
:1006F0007608A6007708A7007008A4027108031CFA
:10070000710F832B842BA5027208031C720F892B97
:100710008A2BA6027308031C730F8F2B902BA70242
:100720002408A00725080318250F972B982BA1074D
:1007300026080318260F9D2B9E2BA20727080318B7
:10074000270AA3072308F3002208F2002108F1007A
:100750002008F0008030A0002008F806FB09FB0A02
:100760007B08031DB42BB52BD22B0130F0070030D2
:1007700003180130F107003003180130F207003090
:1007800003180130F307D22B7408F0027508031C1C
:10079000750FF1027608031C760FF2027708031C2E
:1007A000770FF3027308720471047004031DD92BD0
:1007B000DA2B082C7B08031DDE2BDF2B082C0030E6
:1007C000F3000030F2000030F1000030F0008C2C1B
:1007D000013083120313A0000310F00DF10DF20D90
:1007E000F30DA00BEC2BFB1FF62BF72BF82B701443
:1007F0007B1CFB2BFC2BFF2B0314FB0D012C03108C
:10080000FB0D7A080319052C062C082C0130FA027E
:10081000F21F0B2C0C2CE82BF901FB1F102C112CB8
:100820001F2C7B087F390319162C172C1A2CF90161
:10083000F90A1F2C701C1D2C1E2C1F2C172C79083C
:100840000319232C242C5A2C0130F00700300318F4
:100850000130F107003003180130F20700300318AF
:100860000130F307731C352C362C5A2C7008831278
:100870000313A0007108A1007208A2007308A3006E
:100880000130A400230DA30CA20CA10CA00CA40BFE
:10089000422C2308F3002208F2002108F10020086E
:1008A000F0007A0A0319552C562C5A2C0130A0005E
:1008B0002008FA077A0A03195E2C5F2C642C7A0848
:1008C000031D632C642C722C0030F3000030F20006
:1008D0000030F1000030F0007A08031D702C712CFC
:1008E000722CF8017A1C752C762C782CF2177E2C41
:1008F0007F3083120313A0002008F2057A088312C8
:100900000313A0000310200CA1002108F300F81F1E
:100910008A2C8B2C8C2CF3170800831203132308CA
:100920008039F9007908A8002308F9007907FA004E
:100930007A08AE00A21F9D2C9E2C9F2C2E142E08F0
:100940000319A32CA42CB32C2E0A031DA82CA92C0C
:10095000B12C0030A3000030A2000030A100003014
:10096000A000A217BB2C0030A3000030A200003072
:10097000A1000030A00027088039F9007908A806F6
:100980002708F9007907FA007A08AD00A61FC92CDC
:10099000CA2CCB2C2D142D080319CF2CD02CDF2CD6
:1009A0002D0A031DD42CD52CDD2C0030A7000030DF
:1009B000A6000030A5000030A400A617E72C0030E8
:1009C000A7000030A6000030A5000030A4002D08CC
:1009D0000319EB2CEC2CF12C2E08031DF02CF12C20
:1009E000FA2C0030A3000030A2000030A10000303B
:1009F000A000ED2F2008F9007908F00026080A125F
:100A00008A15FF220A128A11710883120313B40097
:100A10007008B3003308F900FA01FB01FC017C08FF
:100A2000AC007B08AB007A08AA007908A90034085A
:100A3000F900FA01FB01FC017C08B2007B08B1005F
:100A40007A08B0007908AF002108F9007908F000B1
:100A500025080A128A15FF220A128A1171088312C8
:100A60000313B4007008B3003308F900FA01FB0166
:100A7000FC017908A9077A0803110318013E03193C
:100A8000422DAA077B0803110318013E0319492DC3
:100A9000AB077C0803110318013E0319502DAC0766
:100AA0003408F900FA01FB01FC017908AF077A0864
:100AB00003110318013E03195E2DB0077B080311D3
:100AC0000318013E0319652DB1077C0803110318B3
:100AD000013E03196C2DB2072208F9007908F000D5
:100AE00024080A128A15FF220A128A117108831239
:100AF0000313B4007008B3003308F900FA01FB01D6
:100B0000FC017908A9077A0803110318013E0319AB
:100B10008A2DAA077B0803110318013E0319912DA2
:100B2000AB077C0803110318013E0319982DAC078D
:100B30003408F900FA01FB01FC017908AF077A08D3
:100B400003110318013E0319A62DB0077B080311FA
:100B50000318013E0319AD2DB1077C0803110318DA
:100B6000013E0319B42DB2070830F9000310A90D96
:100B7000AA0DAB0DAC0DF90BB62D2108F9007908C3
:100B8000F00024080A128A15FF220A128A1171083D
:100B900083120313B4007008B3003308F90034085B
:100BA000FA00FB01FC017908A9077A080311031870
:100BB000013E0319DC2DAA077B0803110318013E2F
:100BC0000319E32DAB077C0803110318013E031939
:100BD000EA2DAC072008F9007908F00025080A1270
:100BE0008A15FF220A128A11710883120313B400B6
:100BF0007008B3003308F9003408FA00FB01FC0167
:100C00007908A9077A0803110318013E0319092E70
:100C1000AA077B0803110318013E0319102EAB0726
:100C20007C0803110318013E0319172EAC07083086
:100C3000F9000310A90DAA0DAB0DAC0DF90B192E7F
:100C40002008F9007908F00024080A128A15FF220A
:100C50000A128A11710883120313B4007008B300DA
:100C60003308F9003408FA00FB01FC017908A907F0
:100C70007A0803110318013E03193F2EAA077B08C7
:100C800003110318013E0319462EAB077C0803111C
:100C90000318013E03194D2EAC072108F90079080D
:100CA000F00026080A128A15FF220A128A1171081A
:100CB00083120313B4007008B3003308F90034083A
:100CC000FA00FB01FC017908AF077A080311031849
:100CD000013E03196C2EB0077B0803110318013E77
:100CE0000319732EB1077C0803110318013E031981
:100CF0007A2EB2072208F9007908F00025080A12B6
:100D00008A15FF220A128A11710883120313B40094
:100D10007008B3003308F9003408FA00FB01FC0145
:100D20007908AF077A0803110318013E0319992EB9
:100D3000B0077B0803110318013E0319A02EB10769
:100D40007C0803110318013E0319A72EB2072208DD
:100D5000F9007908F00026080A128A15FF220A1203
:100D60008A11710883120313B4007008B3003308AA
:100D7000F9003408FA00FB01FC0108300310F90DFA
:100D8000FA0DFB0DFC0DFF3E031DBE2E7908AF07CB
:100D90007A0803110318013E0319CF2EB0077B0810
:100DA00003110318013E0319D62EB1077C08031165
:100DB0000318013E0319DD2EB2072908F9002A089D
:100DC000FA002B08FB002C08FC0018300310FC0C68
:100DD000FB0CFA0CF90CFF3E031DE62E7908AF0759
:100DE0007A0803110318013E0319F72EB0077B0898
:100DF00003110318013E0319FE2EB1077C080311ED
:100E00000318013E0319052FB2070830F90003103B
:100E1000A90DAA0DAB0DAC0DF90B072F2E082D0750
:100E2000F900FA01FA0D7908823EB3007A08031836
:100E3000013EFF3EB400392F0130F9000310AF0D21
:100E4000B00DB10DB20DF90B1E2FAC1F282F292F9D
:100E50002A2F2F140130F9000310A90DAA0DAB0D94
:100E6000AC0DF90B2C2FFF30B3070318B40AFF3079
:100E7000B407B11F3C2F3D2F1C2FAD01AC1F412FDC
:100E8000422F5E2FFF302905F900FF302A05FA00B6
:100E9000FF302B05FB007F302C05FC007C087B0419
:100EA0007A0479040319552F562F592FAD01AD0A35
:100EB0005E2F2F1C5C2F5D2F5E2F562F2D080319E0
:100EC000622F632F942F0130AF07003003180130D9
:100ED000B007003003180130B107003003180130AB
:100EE000B207321C742F752F942F2F08F900300889
:100EF000FA003108FB003208FC000130FD007C0DD7
:100F0000FC0CFB0CFA0CF90CFD0B7F2F7C08B200DB
:100F10007B08B1007A08B0007908AF000130B30750
:100F20000318B40A0030B4073408803AFF00803058
:100F30007F02031D9D2FFF303302031CA02FA12F22
:100F4000AC2F7F3083120313B2008030B100003029
:100F5000B0000030AF00E12F831203133408803A51
:100F6000FF0080307F02031DB72F013033020318CA
:100F7000BA2FBB2FC72F003083120313B2000030EB
:100F8000B1000030B0000030AF00A801E12F8312A3
:100F900003133308F9007908AE00FF30AF05FF30C6
:100FA000B0057F30B1050030B2052E1CD82FD92FE7
:100FB000DA2FB1172E08F9000310790CFA007A081D
:100FC000B2002808F9007908B2043208A3003108F9
:100FD000A2003008A1002F08A0000800831203130C
:100FE000DE01DF01E001E101E201E301E401E501ED
:100FF000E601E701E801E90183010A128A15802D63
:1013F2000A128A1515220A128A158316031311146A
:1014020008000A128A1515220A128A158316031376
:10141200111508000A128A1515220A128A15700877
:1014220083120313930008008316031314191A2A54
:101432001B2A152A11081F39031D202A212A152AC1
:1014420008007408303EF20075080318013E003EA1
:10145200F3000A128A153E220A128A150800831620
:1014620003138501091089100911831603178801D6
:101472008901831203138501080072088312031382
:1014820085000914891009150A128A155F220A12A9
:101492008A158312031309110800F20072088312DD
:1014A200031385000910891009150A128A155F2293
:1014B2000A128A158312031309110800F001F101BF
:1014C2000130F0070318F10A0030F1077108803A81
:1014D200FF0080307F02031D702A32307002031C2D
:1014E200732A742A612A0800F4007403031D7A2AFD
:1014F2007B2A832A7308803E0A128A154E220A1218
:101502008A15902A02307406031D882A892A902A95
:101512007308C03E0A128A154E220A128A15080062
:10152200803083120313AB062F08F3002E08F2005B
:101532002D08F1002C08F0002B08F7002A08F6000D
:101542002908F5002808F4000A128A11F5210A1266
:101552008A15730883120313AB007208AA0071087C
:10156200A9007008A8000800F401F501701CBA2A4D
:10157200BB2AC12A7208F4070318F50A7308F50793
:1015820001300310F20DF30DFF3E031DC22A01309C
:101592000310F10CF00CFF3E031DC92A7008710400
:1015A200031DD42AD52AB72A7508F1007408F00061
:1015B2000800F600F22A760884000A128A11032033
:1015C2000A128A15F400F5017408F2007508F30096
:1015D2000A128A153E220A128A150130F400740892
:1015E200F607760884000A128A1103200A128A1565
:1015F200003A031DFD2AFE2ADC2A0800F800F40145
:10160200F5017008F200F3017208F6007308F700A2
:10161200781C0C2B0D2B132B7608F4070318F50AF4
:101622007708F50701300310F60DF70DFF3E031D95
:10163200142B0310F80C7808031D202B212B092BE7
:101642007508F1007408F00008000A128A151522C4
:101652000A128A158316031391150A128A15152286
:101662000A128A15831203131308F200F301720897
:10167200F4007308F5000A128A1515220A128A1557
:1016820070037104031D462B472B4B2B8316031348
:1016920091124E2B83160313911611167508F10041
:1016A2007408F00008002830831203139400831694
:1016B20003139101831203132008A4002108A5003B
:1016C2002208A6002308A70002300310A40DA50DCE
:1016D200A60DA70DFF3E031D662B2708F300260863
:1016E200F2002508F1002408F0000030F7003D3038
:1016F200F6000930F5000030F4000A128A15E223E0
:101702000A128A157008FF3E831603139300940190
:101712008715071608001A30F400F830F300F30BAF
:10172200902BF40B902B000030300A128A154E22B7
:101732000A128A150730F4007D30F300F30B9F2B59
:10174200F40B9F2B30300A128A154E220A128A1588
:10175200C730F300AC2BF30BAB2BAF2BB02B3030DD
:101762000A128A154E220A128A15C730F300B92BC3
:10177200F30BB82BBC2BBD2B38300A128A154E2224
:101782000A128A1510300A128A154E220A128A1576
:1017920001300A128A154E220A128A1506300A12DE
:1017A2008A154E220A128A150C300A128A154E2206
:1017B2000A128A1580300A128A154E220A128A15D6
:1017C20008000030FC000030FB000030FA0000305E
:1017D200F90073087204710470040319F12BF22BDF
:1017E2003F2CFD01FD0A022C0130F8000310F00D20
:1017F200F10DF20DF30DF80BF72B0130F80078081C
:10180200FD07F31F052C062CF52B0130F800031001
:10181200F90DFA0DFB0DFC0DF80B082C730877027D
:10182200031D1D2C72087602031D1D2C7108750202
:10183200031D1D2C70087402031C202C212C302C3B
:101842007008F4027108031C710FF5027208031C80
:10185200720FF6027308031C730FF702791401303A
:101862000310F30CF20CF10CF00CFF3E031D312CB3
:101872000130FD02031D3E2C3F2C062C7C08F30098
:101882007B08F2007A08F1007908F00008000310E2
:1018920083120313510D520DD3005308D900590876
:1018A200031D542C552C5E2C0030D2000030D10088
:1018B2000030D0000030CF00C32C4F08D3005008B6
:1018C200D4005108D5005208D6001F300310D60CA0
:1018D200D50CD40CD30CFF3E031D672C5308D70044
:1018E2005708D800D117FF30CF05FF30D005FF30A1
:1018F200D1050030D2059630D902D91F812C822C15
:101902009C2C5908803A973E0318882C892C8A2CE3
:10191200552C01300310D20CD10CD00CCF0CFF3E51
:10192200031D8B2C0130D3005308D907031D9A2CB9
:101932009B2C8A2CB32C20305902031CA12CA22CE4
:10194200AE2C552C0130D3000310CF0DD00DD10D8C
:10195200D20DD30BA52C0130D9025908031DB22C8C
:10196200B32CA32C58080319B72CB82CC32CCF09BD
:10197200D009D109D209CF0A0319D00A0319D10A11
:101982000319D20A080083120313A00020080319C6
:10199200CB2CCC2CE02CF91FCF2CD02CE02C7609B0
:1019A200A2007709A3007809A4007909A500A20A78
:1019B2000319A30A0319A40A0319A50AE82C790832
:1019C200A5007808A4007708A3007608A200790889
:1019D200780477047604031DEF2CF02CF92C0030E8
:1019E200F9000030F8000030F7000030F6007F2DDB
:1019F2009630FA007A08A1000B2D0130FA007A081D
:101A0200A10701300310A50CA40CA30CA20CFF3EED
:101A1200031D032DFE302505031D102D112DFE2C57
:101A22002D2D0130FA007A08A1070130A2070030FB
:101A320003180130A307003003180130A407003057
:101A420003180130A50701300310A50CA40CA30C48
:101A5200A20CFF3E031D252DFF302505031D322D4F
:101A6200332D122D3F2D0130A1020130FA00031057
:101A7200A20DA30DA40DA50DFA0B382DA41B422D0A
:101A8200432D492D023021020318482D492D342DB2
:101A920021184C2D4D2D552DFF30A205FF30A305E9
:101AA2007F30A405FF30A5050310A10C2108FA0020
:101AB200FB01FC01FD0118300310FA0DFB0DFC0DBA
:101AC200FD0DFF3E031D5D2D7A08A2047B08A304D1
:101AD2007C08A4047D08A50420080319712D722D29
:101AE200772DF91F752D762D772DA5172508F9006D
:101AF2002408F8002308F7002208F60008000A125A
:101B02008A1530220A128A15003083120313A300A9
:101B12000130A2008630A100A030A0000A128A156E
:101B220054230A128A150A128A158C230A128A155C
:101B32000A128A15F9210A128A151130F0000030B2
:101B4200F1000A128A150B220A128A150030F000DF
:101B5200F1000A128A1526230A128A1570088312C6
:101B62000313DA007108DB00DC01DD015D08F90016
:101B72005C08F8005B08F7005A08F60000300A1209
:101B82008A15C4240A128A15790883120313E10004
:101B92007808E0007708DF007608DE000A128A156E
:101BA20002220A128A15C73083120313DA00D92DD2
:101BB200DA0BD82DDC2D0A128A15F9210A128A15A0
:101BC2002130F0000030F1000A128A150B220A12AD
:101BD2008A150030F000F1000A128A1526230A1233
:101BE2008A15710883120313E3007008E2000A12D7
:101BF2008A1502220A128A15C73083120313DA00E9
:101C0200022EDA0B012E052E433083120313B80085
:101C12007F30B7000030B6000030B5004030A3007E
:101C2200A030A2000030A1000030A0006108A7008F
:101C32006008A6005F08A5005E08A4000A128A11C7
:101C42008D240A128A15831203132308BC0022086A
:101C5200BB002108BA002008B9000A128A11182014
:101C62000A128A15831203133808E1003708E000CC
:101C72003608DF003508DE004230A300C830A2007B
:101C82000030A1000030A0006108A7006008A60093
:101C92005F08A5005E08A4000A128A118D240A12A8
:101CA2008A15831203132308E1002208E0002108A9
:101CB200DF002008DE006108BC006008BB005F088E
:101CC200BA005E08B9004230B800C830B700003030
:101CD200B6000030B5000A128A1118200A128A15BD
:101CE200831203133808D2003708D1003608D00017
:101CF2003508CF000A128A1548240A128A1583125F
:101D020003135008E9004F08E8006430F200003085
:101D1200F3006908F1006808F0000A128A15B5227A
:101D22000A128A15700883120313DA007108DB00A5
:101D3200DC01DD015D08F9005C08F8005B08F700D2
:101D42005A08F60000300A128A15C4240A128A15AB
:101D5200790883120313AB007808AA007708A90058
:101D62007608A8006108AF006008AE005F08AD0009
:101D72005E08AC000A128A1591220A128A15831291
:101D820003132B08E1002A08E0002908DF002808D5
:101D9200DE006108BC006008BB005F08BA005E0894
:101DA200B9004130B8002030B7000030B600003032
:101DB200B5000A128A1118200A128A158312031317
:101DC2003808D2003708D1003608D0003508CF00D5
:101DD2000A128A1548240A128A158312031350081C
:101DE200E7004F08E6006108AF006008AE005F0838
:101DF200AD005E08AC000A30F2000030F300670864
:101E0200F1006608F0000A128A15B5220A128A1534
:101E1200700883120313DA007108DB00DC01DD01B4
:101E22005D08F9005C08F8005B08F7005A08F60044
:101E320000300A128A15C4240A128A1579088312FC
:101E42000313AB007808AA007708A9007608A80057
:101E52000A128A1591220A128A15831203132B0879
:101E6200D2002A08D1002908D0002808CF000A127F
:101E72008A1548240A128A15831203135008E500B2
:101E82004F08E400F301F30A01300A128A157522A1
:101E92000A128A150A128A155F220A128A1501305D
:101EA2000A128A15DA220A128A150A128A155F2282
:101EB2000A128A15063083120313DA005A08F30055
:101EC20001300A128A1575220A128A150A128A1517
:101ED2005F220A128A1505300A128A15DA220A12BC
:101EE2008A150A128A155F220A128A150B3083128A
:101EF2000313DA005A08F30001300A128A15752218
:101F02000A128A150A128A155F220A128A150930E4
:101F12000A128A15DA220A128A150A128A155F2211
:101F22000A128A15F301F30A02300A128A1575227F
:101F32000A128A150A128A155F220A128A15831258
:101F420003136908F5006808F4000A128A152222B0
:101F52000A128A150A128A155F220A128A150D3090
:101F62000A128A15DA220A128A150A128A155F22C1
:101F72000A128A15831203136708F5006608F40033
:101F82000A128A1522220A128A150A128A155F2259
:101F92000A128A15831203136508F5006408F40017
:101FA2000A128A1522220A128A150A128A155F2239
:101FB2000A128A15063083120313DA005A08F30054
:101FC20002300A128A1575220A128A150A128A1515
:101FD2005F220A128A15831203136308F50062084E
:101FE200F4000A128A1522220A128A150A128A1586
:0E1FF2005F220A128A15992D0A128A11002800
:04400E00D4E0FFFFFC
:00000001FF
